:020000040800F2
:10000000903D002061020008373C0008253B0008B5
:10001000353C000829230008B95C000800000000F6
:10002000000000000000000000000000A13E0008E9
:10003000C523000800000000B33D0008B13F0008E0
:100040007B0200087B0200087B0200087B0200089C
:100050007B0200087B0200087B0200087B0200088C
:100060007B0200087B0200087B0200087B0200087C
:100070007B0200087B0200087B0200087B0200086C
:100080007B0200087B0200087B0200087B0200085C
:100090007B0200087B0200087B0200087B0200084C
:1000A0007B0200087B0200087B0200087B0200083C
:1000B0007B0200087B0200087B0200087B0200082C
:1000C0007B0200087B0200087B0200087B0200081C
:1000D0007B0200087B0200087B0200087B0200080C
:1000E0007B0200087B0200087B0200087B020008FC
:1000F0007B0200087B0200087B0200087B020008EC
:100100007B0200087B0200087B0200087B020008DB
:100110007B0200087B0200087B0200087B020008CB
:100120007B0200087B0200087B0200087B020008BB
:100130007B02000800000000000000007B020008B5
:100140007B0200087B0200087B0200087B0200089B
:100150007B0200087B0200087B0200087B0200088B
:100160007B0200087B0200087B0200087B0200087B
:100170007B020008393C000800000000000000007D
:100180007B0200087B02000800F002F800F058F83B
:100190000AA090E8000C82448344AAF10107DA45E2
:1001A00001D100F04DF8AFF2090EBAE80F0013F0DC
:1001B000010F18BFFB1A43F0010318470466000043
:1001C00024660000103A24BF78C878C1FAD85207D4
:1001D00024BF30C830C144BF04680C6070470000C1
:1001E0000023002400250026103A28BF78C1FBD840
:1001F000520728BF30C148BF0B607047662906F020
:100200000D82642900F00A81752900F007817329A5
:1002100000F0F984002070471FB506F0F2F900F0F5
:10022000BFFD04000020002105F072FF401C60604B
:100230000020002105F056FFE0601FBD10B510BD85
:1002400000F0F8FE1146FFF7E7FF05F03FFF01F071
:100250009BF903B4FFF7F2FF03BC01F0DFF90000E4
:100260000948804709480047FEE7FEE7FEE7FEE74A
:10027000FEE7FEE7FEE7FEE7FEE7FEE70448054986
:10028000054A064B704700004540000889010008F8
:10029000901D0020903D0020902D0020902D0020EA
:1002A00053EA020C00F069802DE9F04B4FF0000694
:1002B000002B1FBFB3FA83F503FA05F424FA05F601
:1002C0005E4012BF1643B2FA82F502FA05F4C5F198
:1002D00020051EBF22FA05FC44EA0C04203556EA2C
:1002E000044C4FEA144418BF641C4FF000084FF050
:1002F0000009904271EB030C39D3002919BFB1FA00
:1003000081F701FA07F6B0FA80F700FA07F6C7F1AD
:1003100020071EBF20FA07FC46EA0C062037B6FB72
:10032000F4FCA7EB0507103F07F01F0BCBF12006ED
:100330000CFA0BFB2CFA06F644BFB3460026202F1E
:10034000A4BF5E464FF0000B5BEA060C08BF4FF0FF
:10035000010B19EB0B09ABFB027C48EB0608C01B39
:1003600006FB02CC0BFB03CC71EB0C01C1E70B4687
:10037000024641464846BDE8F08B13B54FF00000F9
:100380004FF00001AFF30080BDE81C407047000053
:100390000FB47CB50C0009AA009001D02044401E87
:1003A000084B7B4469460190089800F0FAFB05462B
:1003B0001CB10020694600F007FC28467CBC5DF8B3
:1003C00014FB00002D08000070B50C460546012AFC
:1003D00005D02878800600D5EA69002302E00123D1
:1003E00005E05B1C934202D2E05C0028F9D1A869C9
:1003F000E618C01AA861286A184428622846AFF394
:10040000008004E0D5E9012114F8010B9047B442C3
:10041000F8D32846AFF3008070BD00002DE9F0410D
:100420000646002410687529314616A510D0AFF392
:100430000080002802DA404213A507E031688A07ED
:1004400001D512A502E0490704D511A5012401E058
:10045000AFF3008000210A2206F1240709E0B0FB77
:10046000F2FCB0FBF2F302FB1C003030785418466B
:10047000491C0028F3D123462A463046BDE8F04106
:1004800000F021B9000000002D0000002B0000004A
:10049000200000002DE9F0410F46054600202862AB
:1004A0002846E968884770B3252805D0D5E9012199
:1004B0009047286A401CF2E7E968284600268847EA
:1004C0006C2804460AD0682C08D04C2C35D06A2CF5
:1004D00031D0742C31D07A2C2FD016E0E968064642
:1004E00028468847B042044608D16C2E23D04FF4EA
:1004F00080662846E9688847044606E06C2E03D0EB
:100500004FF4807601E01EE04026E4B1A4F1410002
:10051000192802D8203446F400663A462146284677
:100520002E60FFF76BFE60B1012808D0FF1D27F099
:1005300007070837B4E78026DBE70026D9E73F1D29
:10054000AEE72046B2E7286ABDE8F081014A00F034
:10055000B1BB00000401002030B505460B462A4619
:1005600013F8014B12F8010B08B1A042F8D01CB1EE
:10057000002802D06D1CF1E7284630BD032A40F266
:10058000308010F0030C00F0158011F8013BBCF135
:10059000020F624498BF11F801CB00F8013B38BF4D
:1005A00011F8013BA2F1040298BF00F801CB38BF5B
:1005B00000F8013B11F0030300F09E83083AC0F0FD
:1005C000088051F8043B083A51F804CBA0E8081021
:1005D000F5E7121D5CBF51F8043B40F8043BAFF354
:1005E0000080D20724BF11F8013B11F801CB48BFAE
:1005F00011F8012B24BF00F8013B00F801CB48BFE4
:1006000000F8012B70474FF0000200B513469446E6
:100610009646203922BFA0E80C50A0E80C50B1F15A
:100620002001BFF4F7AF090728BFA0E80C5048BF6E
:100630000CC05DF804EB890028BF40F8042B08BF0C
:10064000704748BF20F8022B11F0804F18BF00F808
:10065000012B704710B5044610F0030F08BF11F0CE
:10066000030F40F015804FF0013E121FC0F20E80C4
:1006700051F8043BA3EB0E0C2CEA030C1CEACE1C35
:1006800008BF40F8043BF0D0A1F1040102F10402DC
:10069000521E08DB11F8013B002B00F8013BF7D19B
:1006A000114600F05BFB204610BD70477047704755
:1006B00010B500F079FB006810BD10B5044600F0DD
:1006C00073FB046010BD2DE9F0470D469946924634
:1006D000044600F124080168880604D5E06921F089
:1006E0001001216000E00120A84201DD471B00E06D
:1006F0000027A1697A1902EB0900081AA061207885
:10070000C00602D42046AFF30080002608E0D4E9FA
:1007100001211AF806009047206A401C761C2062CE
:100720004E45F4DB2078C0060AD52046AFF30080A2
:1007300006E0D4E9012130209047206A401C206265
:10074000381EA7F10107F4DC07E0D4E9012118F80D
:1007500005009047206A401C2062281EA5F1010573
:10076000F3DC2046AFF300802078000602D502209B
:10077000BDE8F0870120FBE770472DE9FF4F0C46ED
:100780001E464FF0FF378BB0D2E90001DDF86080E4
:100790000A908A46C1F30A5505B93D46002108462C
:1007A0004FF00000BAF1000F00F4400005DA00EB52
:1007B00080004FF4400101EA50004FEA9059B9F12E
:1007C000010F00DDB9460A9850EA4A000ED044F6FF
:1007D0001050A5F2FF3545432F14B8F1000F1ED07D
:1007E0007542291E1EDDC9F100021CE0B8F1010F9F
:1007F0004FF0000001D0302103E0F24305E0215426
:10080000401CB042FBDB30460022002121540B99F2
:10081000C1F80880C1E900200FB0BDE8F08FBD1B12
:100820006D1CDEE74A4600DA694206A800F06EFB5E
:1008300006AB93E8070003AB83E8070050460A992C
:1008400001F03EF98DE80700A0F500501F38009038
:100850000398002D0ADD42F21F014A460844002396
:1008600003A90390684601F0E9FB09E0A0F50050F8
:100870004A461F38002303A90390684601F008FC8C
:100880008DE807000004000C03D04FF0FF30410852
:1008900000E01046B8F1000F03D000220092154688
:1008A0001EE0751E05D400F083FA303262556D1ECD
:1008B000F9D5B3460122084302D000227F1C04E090
:1008C0002078302801D100227F1E002A099784D089
:1008D0001DE0112D07DA00F06BFA303262556D1C05
:1008E00050EA0102F5D1084302D00098C8B10EE0E9
:1008F0000021681E05E0235C625C63542254401EA4
:10090000491C8142F7DBAB46A81B401E0990002022
:1009100004F80B000B98099AC0F80880C0E9002B76
:100920007AE711264FF0000857E72DE9F04F884687
:100930000446D21D22F0070191B0D1E90001CDE9B2
:100940000A0105F017FA02460B98C00F01D02D20BE
:1009500007E02068810701D52B2002E0202101EA71
:10096000C000032A099001D0072A05DB034641464F
:10097000204600F06BFA0BE12078800601D5E06993
:1009800000E00620B8F1650F814606D0B8F1660F89
:1009900018D0B8F1670F70D131E00020B9F1110F14
:1009A000009001DB112301E009F101030AAA01A96A
:1009B0000CA8FFF7E2FEDDE90C70002609F1010545
:1009C000834647E001204B4600904FF000470AAABB
:1009D00001A90CA8FFF7D1FEDDE90DB00C995D4629
:1009E000002610B909F101000D18B9EB050003D478
:1009F000C0F1FF3609F10105A5EB09002BE0B9F1C3
:100A0000010F01DA4FF001090020B9F1110F009038
:100A1000484601DD112300E003460AAA01A90CA8FB
:100A2000FFF7ABFEDDE90C704D46002683462078CB
:100A300000070AD4AB4500DA5D4601A8012D04DDAC
:100A4000411911F8011C302907D04F4502DA17F17E
:100A5000040F04DA012082460FE06D1EEEE7002F3E
:100A600002DCED1B3E4403E0781CA84200DD7D1C47
:100A7000B81B00F1010A4FF000472078000703D4AB
:100A8000AA4501DB4FF0FF3A0021B7F1004F0DF10D
:100A900043088DF8431024D002202B23002F01DAC5
:100AA0007F422D230A21021EA0F1010000DC5FB16C
:100AB00097FBF1FC97FBF1F201FB1C7C17460CF154
:100AC000300C08F801CDEEE7A8F101000370218891
:100AD000090501D5452100E06521A0F1010800F8D4
:100AE000011C09980FA9A1EB0807FF1D00B1012007
:100AF000411901EBEA70A1693844081A401EA0614F
:100B00002078C00602D42046AFF30080099828B1AF
:100B1000D4E901219047206A401C20622078C00659
:100B200022D52046AFF300801EE0002E04DBB34543
:100B300002DD01A8805D00E03020D4E9012190476A
:100B4000206A401C2062761CAAF101005FEA000ABC
:100B50000AD100F025F9C0680168405CD4E90121A0
:100B60009047206A401C2062281EA5F10105DCDCAC
:100B700007E0D4E9012118F8010B9047206A401CD6
:100B80002062381EA7F10107F3DC2046AFF3008096
:100B9000032011B041E6000001694A1C0261087897
:100BA000704700B58FB0CDE90131002105910549AD
:100BB0007944CDE9031011466846FFF76BFC0FB08E
:100BC00000BD0000E5FFFFFF0A6802F8010B0A60A4
:100BD0007047D1E900239A4202D2531C0B60107077
:100BE000704710B5436913B1AFF3008001E0FFF720
:100BF000EBFB012010BD127800F124010A700022E5
:100C00004A700122EDE711684FF0FF32E9E700007A
:100C10000FB4002300B589B00CA900910B99CB60EB
:100C2000214B7B440693214B7B44079304236FF0B5
:100C30000042CDE901321E4A7A446B4608920246D0
:100C4000002005F04DFD09B05DF814FB70B50646B7
:100C50004FF0FF3015460C46324686B00091CDE984
:100C6000010169460020049004A8FFF7D1FF024665
:100C70000498211825B108B1084600E020462860F4
:100C8000049800280DD0002A02DD0098884208D080
:100C90003246081B69460094CDE9010404A8FFF719
:100CA000B7FF06B070BD0000A7020000BF02000041
:100CB000FF0100002DE9F04115460E46040002D167
:100CC0002C6804B90BA4204600F0A2F90444207853
:100CD00070B127463146384600F08AF9044420783E
:100CE00010B1002004F8010B38462C60BDE8F081FB
:100CF0000027F9E70000000010B5203AC0F00B8093
:100D0000B1E81850203AA0E81850B1E81850A0E80F
:100D10001850BFF4F5AF5FEA027C24BFB1E8185069
:100D2000A0E8185044BF18C918C0BDE810405FEAD9
:100D3000827C24BF51F8043B40F8043B08BF704755
:100D4000D20728BF31F8023B48BF11F8012B28BF5A
:100D500020F8023B48BF00F8012B70474FF000021B
:100D60000429C0F0128010F0030C3FF44EACCCF11B
:100D7000040CBCF1020F18BF00F8012BA8BF20F82B
:100D8000022BA1EB0C01FFF740BC5FEAC17C24BF42
:100D900000F8012B00F8012B48BF00F8012B704729
:100DA00000487047501D002000487047301D00204B
:100DB00030B5B0F10A024FEA900E71F100034EEA2D
:100DC000817EB0EB0E0061EB91014FEA101E4EEAFE
:100DD000017E10EB0E0041EB11114FEA102E4EEA8E
:100DE000016E10EB0E0041EB11214FEA104E4EEA5E
:100DF000014E10EB0E0041EB1141401841F1000192
:100E00004FEAD00040EA41704FEAD10110EB800573
:100E10004FEA810444EA907444EB01046D1944EBF9
:100E20000404521BA3414FF0000348BF0A3200D50F
:100E300030BD401C41F1000130BD10B5044600F04A
:100E40001FF90068005D00F0010010BD2DE9F041C0
:100E50001F46044603260168072A01F4006004DBEC
:100E600008B116A505E016A503E008B115A500E038
:100E700015A521F010002060A069C01EA0610FB16F
:100E8000401EA0612046AFF300804FB1D4E901219C
:100E900038469047206A401C2062C01C206206E051
:100EA000206AFAE7D4E9012115F8010B9047761E74
:100EB000F8D22046AFF30080BDE8F0814E414E00ED
:100EC0006E616E00494E4600696E6600426842B12E
:100ED000016811F8013B23B1521EC0E90012184607
:100EE00070470121C160881E704742685AB1C368CB
:100EF000016843B983688B4205D0491E521CC0E982
:100F00000012002070474FF0FF3070472DE9F04786
:100F1000814616468AB0354878440DC88DE80D00E4
:100F200032487844801C03AC0DC884E80D0041F6BB
:100F30009B300844372190FBF1F290FBF1F5A5F1CD
:100F4000800501FB12041B3C02D56442012000E035
:100F50000020DFF898A080460027FA44AAF1BE0AD4
:100F60000EE0E0070AD03246684607EB470101234E
:100F70000AEB810101F08CF88DE8070064107F1CFA
:100F8000002CEED1194F7F44AE3F19E0E80715D091
:100F900007EB04100DF1180A90E80E008AE80E0025
:100FA000C068F04201D1981908903246012306A981
:100FB00003A801F06DF803AB83E807006D10641C13
:100FC000002DE3D14FF0010332466946B8F1000F1E
:100FD00003A802D001F032F801E001F059F8C9E9A4
:100FE0000001C9F808200AB0BDE8F0878C5800005D
:100FF00030B503461D781DB10A4603E0AC4201D16D
:10100000181A30BD12F8014B002CF7D15B1CF1E728
:1010100030B503461D783DB10A4612F8014B1CB1AC
:10102000AC42FAD15B1CF5E7181A30BD0048704796
:10103000301D00207546FFF7F9FFAE4605006946F2
:10104000534620F00700854618B020B5FFF716F983
:10105000BDE820404FF000064FF000074FF00008B9
:101060004FF0000B21F00701AC46ACE8C009ACE83A
:10107000C009ACE8C009ACE8C0098D467047000063
:1010800010B5FFF78DFE001D10BD00BF855000009C
:101090002DE9FF4F06468BB00878FF2806D0491C83
:1010A0002D2805D000244FF0000908E000200CE0B6
:1010B0000124F8E709EB8903491C00EB4309087890
:1010C000FF28F7D114B1C9F100008146107800253E
:1010D0002C46AA4629462D2801D02B2804D1521C83
:1010E0002D2813D0002082468B461078FF280FD081
:1010F0004FF0000C0A21521CA5FB017804FB018172
:1011000005FB0C11C5194BEB0104EEE70120EAE7E2
:10111000002108464FF00000BAF1000F02D000EBAA
:1011200080004008C0F38157012F01DD4FF0FF37E9
:101130000E9955EA040009EB01080BD04FF00209A3
:1011400018F5FA7F16DA4FEACA70002F706008DDD2
:10115000012007E04FEACA70C6E900B00FB0BDE851
:10116000F08F00203060FFF71FFEC0F800901821BC
:10117000084616E0B8F5FA7F18DD002F02DAF748C6
:10118000784401E0F6487844D0E90010C6E9001040
:1011900040EACA707060FFF707FEC0F800901421A3
:1011A00008460FB0BDE8F04F05F035BA00210846FB
:1011B0004FF00000B8F10001099002DAC7F1000217
:1011C00000E03A4601DAC8F1000106A8FFF79EFEEA
:1011D00006AB93E8070003AB83E8070044F23E0048
:1011E0005BEA04010090584604D144F21E012C46EB
:1011F0005D460091210C0904014306D100992404A5
:1012000044EA15442D041039009104F07F41014354
:1012100006D10099240244EA15642D020839009190
:1012200004F07041014306D10099240144EA157489
:101230002D01091F009104F04041014306D100999E
:10124000A40044EA9574AD00891E009104F00041A9
:10125000084304D100986D196441401E00904FF07E
:1012600001033A466846B8F1000FCDE9014503A9EC
:1012700002DD00F022FF01E000F0F5FEBAF1000F00
:1012800004460D4601D084F00044002108464FF08A
:101290000000099940F2FF77484010F00C0F07D189
:1012A00024F00040284303D0C4F30A50B84212D1BE
:1012B000FFF77AFDC0F80090C4F30A50B8420AD193
:1012C000A8487844D0E90010C6E9001004F00041B5
:1012D0000843706042E7C6E900543FE72DE9FF4F3D
:1012E0001F464FF0000A4FF0FF38454691B0D7E94E
:1012F0000146CDF83CA0FFF753FDC0680168405C93
:101300001090B96912986D1C8847396A81468847E0
:101310000028F6D1B9F1FF3F0AD0002E24F4D064A2
:1013200011DDB9F12B0F08D0B9F12D0F0BD102E06F
:10133000404615B013E744F48064B96912986D1CF7
:101340008847761E8146600504A901D52D2000E05E
:101350002B20002E01F1010B0DF130088DF810004B
:101360003FDDB9F1690F08D0B9F1490F05D0B9F1E6
:101370006E0F02D0B9F14E0F1CD13B4601A800956B
:1013800080E85002DDE912126FF0020005F0ACF9BE
:10139000C11CCED10EE0B96912986D1C88478146F8
:1013A0001398761E44F4007405600F98401C002EBC
:1013B0000F9016DDB9F1300FEDD0B9F1780F02D0F2
:1013C000B9F1580F0DD10F9801280AD13B46CDE94C
:1013D0000054DDE91212001F029605F083F9C11CCA
:1013E000A7D1109989453ED144F0800406E01399B5
:1013F000681CAAF1010A44F400740860B9696D1C04
:101400001298761E884730288146F0D02BE010993C
:10141000894505D1200603D4761E44F0800418E0E7
:10142000484604F004FE08B3761E0DF123018B45F7
:1014300044F4007408D2A9F130000BF8010B200627
:1014400007D5AAF1010003E0200602D40AF1010049
:101450008246A00502D51399681C0860B9691298E4
:101460006D1C88478146002ED1DC53E0002E51DDF3
:10147000B9F1650F02D0B9F1450F4BD1A00549D59F
:10148000B9696D1C1298761E24F440748847002EAA
:1014900081460CDD2B2804D0B9F12D0F07D144F47F
:1014A0008074B96912986D1C8847761E8146E005E4
:1014B00001D52D2100E02B2108F8011BCDF800807B
:1014C00021E0761E0DF13901884544F400740CD2F8
:1014D000A9F1300010F0FF0088F8000002D1009957
:1014E000884509D908F1010806E0E00501D51E4844
:1014F00001E042F20F708246B96912986D1C88476C
:10150000814613980560002E04DD484604F08FFDE7
:101510000028D6D1F96912988847FF2053468BF8E6
:10152000000088F8000000200A900B9004AA0CA983
:101530000AA8FFF7ADFDA00502D46FF00100F8E6A0
:1015400014F0240F12D0E0071CD13868DDE90A122C
:10155000031D3B600068C0E9001213E06456000000
:10156000565600001A550000F1D8FFFF0AA9684638
:1015700004F04AFDE00705D13868009A011D396082
:10158000006802602846D4E610B50446AFF3008038
:101590002046BDE81040FEF75CBE00004FF0013C65
:1015A00050F8042B51F8043B9A4221D1A2EB0C03D2
:1015B000934313EACC1317D150F8042B51F8043B92
:1015C0009A4215D1A2EB0C03934313EACC130BD12F
:1015D00050F8042B51F8043B9A4209D1A2EB0C03BA
:1015E000934313EACC13DBD04FF00000704700BFE9
:1015F000D01A01BAB1FA81F101F0180122FA01F012
:10160000CB40C1F12001DBB2C0B2C01A2CFA01F309
:10161000D11A914311EAC311E6D17047014918204C
:10162000ABBEFEE7260002002DE9FF4F1F464FF03C
:101630003C0987B04FF00042DDE9141001F10108C8
:10164000DDF858A002EA4050039000200590834640
:10165000054604460490B969461E08988847AAF1D1
:10166000010A0290BAF1000F3BDD02982E2815D036
:10167000102100F017FA00282EDB4FF0010B05991E
:10168000014317D0B9F1000F0BDB4A46C11700F038
:10169000F6F905430C43A9F1040905E00120049083
:1016A0000BE008B145F0010501200590049820B930
:1016B000361D02E0049800B1361FB969089808F198
:1016C00001088847BBF1000FAAF1010A0290C9D0B6
:1016D0000999C1F80080C5E70298702808D0502801
:1016E00006D0F96908988847BBF1000F14D04FE085
:1016F000002002900120BBF1000F049009D0B969CD
:10170000089808F101088847AAF10109B9F1000F0A
:1017100007DCF969089888476FF001000BB0BDE855
:10172000F08F2B2804D02D280CD14FF0FF300490DF
:10173000B969089808F101088847A9F10109B9F1C8
:10174000000FE6DD411CE4D00A2100F0ABF90028CF
:10175000DFDB029908F1010801EB810100EB410098
:101760000290B969089888470A2100F09BF9099A04
:10177000A9F10109B9F1000FC2F8008001DD0028CC
:10178000E7DAF969089888470499029800FB01662E
:1017900055EA040004D004F04041090002D006E0FC
:1017A000039898E0A40044EA9574AD00B61E04F0D6
:1017B0000041080002D16D196441761E159810F0A1
:1017C000240F03D04FF00B095C4803E04FF02809C9
:1017D0006FF07D008246564507DAAAEB0601894480
:1017E000B9F1410F01DD4FF0410901200021A9F1BC
:1017F000010200F044F9024628400B46214008430C
:1018000001D0012100E00021501E029143F1FF317F
:1018100028402140084301D0012000E00020029927
:10182000834651EA0B014FD0002108464FF00000DB
:10183000039900F4400039B100EB80004FF44001FF
:1018400000EBD07001EA60008015012802DD4FF046
:10185000FF3000E013D0401C36D0029860B3BBF1DB
:10186000000F0CD14A460120002100F008F9284061
:101870002140084301D0012000E00020E0B1012018
:101880004A46002100F0FBF8034640190A46614130
:101890002D1A8C4111D3B9F1400F09DD159810F0C4
:1018A000240F02D0AAF1340603E0AAF1170600E0E3
:1018B000761C00254FF0004406E05B1E42F1FF322B
:1018C00020EA030521EA0204CAF10100B04206DA67
:1018D0001B49039808430190002000900EE0039AF2
:1018E000C4F3D321E80A0A43164940EA44500A43A4
:1018F0003146CDE90002684604F08FFB159810F0E0
:10190000240F0BD01598C00715D13868DDE90012F7
:10191000031D3B600068C0E900120CE002A86946A4
:1019200004F072FB1598C00705D13868029A011DB2
:101930003960006802604046F0E6000002FCFFFFEC
:101940000000F07F0000F03F2DE9FF4F92461D465A
:1019500085B04FF00041DDE9124BDDE914727F1EC6
:1019600001EA4B50414940F0FF4940EA010800219B
:1019700022F020004928049102D04E2828D04CE0C3
:101980003BA0012607C88DE80700A9690698641CDA
:1019900088477F1E014606D41DF8060018B121F0C5
:1019A000200181420BD0E96906988847032E34D084
:1019B000082E32D06FF0010009B0BDE8F08F761C20
:1019C000032E01D0082EE0D1601CCAF80000DCE72D
:1019D000A9690698641C88477F1E2AD420F020003D
:1019E000412826D1A9690698641C88477F1E20D407
:1019F00020F020004E281CD1A9690698641C884755
:101A00007F1E48F4002849F48009CAF8004001D438
:101A1000282806D0E969069888475FEACB7012D07B
:101A200022E0A9690698641C88477F1E01D400281B
:101A300003DAE96906988847BCE72928F1D1641CD4
:101A4000CAF80040E9E71BF0240F07D02868049982
:101A5000031D2B600068C0E9001805E02868021D1E
:101A60002A600068C0F800902046A5E70000F07FDB
:101A7000494E46494E495459000000007047B2F1A2
:101A800020030AD5C2F1200301FA02F120FA03F380
:101A900000FA02F041EA0301704700FA03F14FF047
:101AA000000070473A2800D2303820F02002412A46
:101AB00001D3A2F13700884201D34FF0FF307047C5
:101AC0005FEA400C08BF91F0000F4FEA8C234FEA09
:101AD000C12243EA51514FEA1C5018BF00F5F040B3
:101AE0004FEA300018BF41F000415FEA6C5C00F043
:101AF0002980BCF1FF3F08BF40F080407047130CC5
:101B000006BF12044FF0100C4FF0000C130E04BF70
:101B100012020CF1080C130F04BF12010CF1040C9B
:101B2000930F04BF92000CF1020CD30F04BF5200BC
:101B30000CF1010C11464FF00002A0F11F00A0EBC8
:101B40000C00704711F0004F08BF704731F00041A2
:101B50003FF4D5AF0B0C06BF09044FF0100C4FF04B
:101B6000000C0B0E04BF09020CF1080C0B0F04BF94
:101B700009010CF1040C8B0F04BF89000CF1020C5D
:101B8000CB0F04BF49000CF1010CCCF12003A0EBFA
:101B90000C0022FA03F302FA0CF241EA030100F10D
:101BA0000100704720F07F4C80EA030023F07F475C
:101BB000ACEB070303F57C5300F0004003F1FF0397
:101BC0002DE980494FEA154B09B44FEA144325EA41
:101BD0000B4E24EA03480FF2042606EB13274908AC
:101BE0003E785FEA320203FB0667C7F5000707FB92
:101BF00006F64FEA54374FEAD64606F1020607FBCF
:101C0000066CCCF1005C4FEA1C472CEA074C07FB42
:101C100006F40CFB06F504EB15464FEA961634BFA6
:101C200000204FF000404FEAD13706FB07FC4FEA97
:101C30001C4C0CFB0BF7D21B03FB0CF761EB0701F1
:101C40000CFB0EF7B0EB074072EB17420CFB08F7EA
:101C500034BFA2EB0742B2EB074261EB17414FEAF8
:101C60000C444FEA910706FB07FC4FEA1C4C0CFBA7
:101C70000BF7B0EBC74072EB573203FB0CF734BFE6
:101C8000A2EBC742B2EBC74261EB57310CFB0EF738
:101C9000B0EBC70072EB57720CFB08F734BFA2EB36
:101CA000C702B2EBC70261EB5771039F4FEA816134
:101CB00041EA921104EBCC044FEAD1374FEA826239
:101CC00006FB07FC42EA90124FEA80604FEA1C4C88
:101CD0000CFB0BF7D21B03FB0CF761EB07010CFBB2
:101CE0000EF7B0EB074072EB17420CFB08F734BF5E
:101CF000A2EB0742B2EB074261EB17414FEA8C556A
:101D00004FEA910704EB9C2406FB07FC4FEA1C4CAE
:101D10000CFB0BF7B0EBC74072EB573203FB0CF731
:101D200034BFA2EBC742B2EBC74261EB57310CFBA9
:101D30000EF7B0EBC70072EB57720CFB08F734BF1D
:101D4000A2EBC702B2EBC70261EB577115EB4C2552
:101D50004FEA816141EA92114FEA82624FEAD1373C
:101D600042EA901206FB07FC44F100044FEA80604F
:101D70004FEA1C4C0CFB0BF7D21B03FB0CF761EB7F
:101D800007010CFB0EF7B0EB074072EB17420CFBA0
:101D900008F734BFA2EB0742B2EB074261EB1741F1
:101DA00015EB1C154FEA813141EA92414FEA82322C
:101DB00042EA90424FEA80304FEA0C7644F1000448
:101DC00048EA03434EEA0B484FF0000EB2EB080C12
:101DD00071EB030724BF624639464EEB0E0E4FF0FF
:101DE000000B0018524149414BEB0B0BB2EB080CB6
:101DF00071EB03077BF1000B24BF624639464EEBC3
:101E00000E0E4FF0000B0018524149414BEB0B0BEB
:101E1000B2EB080C71EB03077BF1000B24BF6246A9
:101E200039464EEB0E0E51EA020718BF46F0010686
:101E300016EB0E7655F1000254F1000103D5BDE812
:101E40008901BDE80088BDE88901BDE80048B619F0
:101E5000524141EB0101A3F10103704780807F7E75
:101E60007D7C7B7A79787776767574737271717010
:101E70006F6E6E6D6C6C6B6A6A69686867666665C2
:101E80006464636362616160605F5F5E5E5D5D5C50
:101E90005C5B5B5A5A5959585857575656555555C1
:101EA0005454535352525251515050504F4F4F4E21
:101EB0004E4D4D4D4C4C4C4B4B4B4A4A4A4949496F
:101EC00048484847474747464646454545444444B1
:101ED00044434343434242424241414146EA06466B
:101EE000A3F570534FEA164646EA42564FEAD2220D
:101EF00042EA415210B54FEAD121A3F1010300F0AB
:101F00002FF820F0004000F1020C00F0004701EB38
:101F100000501146BCF5006F40EA070000D210BD2A
:101F2000BAF1000F0AD01CB503B44FF004004FF013
:101F300004014FF000000FBCBDE810404FF000015D
:101F4000BBF1010FB9BF04484FF0FF310348002136
:101F500040EA070010BD00BFFFFFEF7F0000F07FE9
:101F6000002B9C4630D477002BD01CB54FEA3707A6
:101F700003B44FF010004FF01001BAF1000F06D07B
:101F8000BCF1000FDCBF40F0080040F008014FF04A
:101F900000000FBCBDE810400BF1010BBBF1010FBD
:101FA00008BF5FEA170722BF12F1010211F1010118
:101FB0004FF0004143F1000300F0004043EA00000D
:101FC0007047F9D35708D0E746EA064613F1400FA9
:101FD0004FEA16461FDD13F1200FDFBF16430A46F6
:101FE000002120335B42BED0C3F1200746EA0646FB
:101FF00002FA07F74FEA164646EA0706C3F120073A
:1020000022FA03F201FA07F721FA03F14FF0000375
:1020100042EA0702A7E746EA020646EA06464FEA10
:10202000164646EA0106BCBF46EA0646360C4FF0A5
:1020300000034FF000024FF0000194E72DE9804CBF
:102040009A46934670B491E8380007C831EA400CCC
:1020500048BF34EA430C03D5FFF7A4FDFFF780FF28
:10206000F0BCBDE8008C2DE9804C9A46934670B4D4
:1020700091E8380007C831EA400C48BF34EA430C05
:1020800003D5FFF78FFDFFF729FFF0BCBDE8008CFB
:102090002DE9804C9A46934670B491E8380007C801
:1020A00010F0804F08BF13F0804F03D100F01AF8F2
:1020B000FFF756FFF0BCBDE8008C2DE9804C9A4636
:1020C000934670B491E8380007C810F0804F08BFFD
:1020D00013F0804F03D100F005F8FFF7FFFEF0BCCE
:1020E000BDE8008C20F07F4780EA030023F07F4C9E
:1020F00007EB0C03A3F57C5300F00040A3F1FE03B3
:1021000092F0000F00F0B38095F0000F00F07780A0
:102110002DE901494FEA11404FEA144621EA0048EF
:1021200000FB06FC24EA064708FB06F607FB08F856
:1021300000FB07F718EB06484CEB164C4FEA124B26
:1021400018EB07484FEA15464CEB174022EA0B4EB6
:102150000BFB06FC25EA06470EFB06F607FB0EFE08
:102160000BFB07F71EEB064E4CEB164C4FF0000630
:102170001EEB074E4CEB174B18EB0B0840F1000021
:1021800018EB0E0B58EB000840F100008F1A4FF0CF
:1021900000013CBFC943661B14BFB5EB040C002112
:1021A0003CBFC943F61B4FEA17444EEA8E0E27EA9E
:1021B00004454FEA1C4704FB07622CEA074C05FB69
:1021C00007F70CFB05F604FB0CFC16EB074642EB8D
:1021D000174216EB0C4642EB1C421BEB060658EB73
:1021E0000202414146EA9E0601D5BDE80189B619C1
:1021F000524141EB0101A3F10103BDE801894FEA1E
:1022000014454FEA114724EA054621EA074C05FB2D
:1022100007F406FB07F70CFB06F105FB0CFC11EBC2
:10222000074144EB17444FEA124711EB0C4144EBD2
:102230001C4422EA074C05FB07F206FB07F70CFBE0
:1022400006F605FB0CFC16EB074642EB174216EBB5
:102250000C4642EB1C456A1854F1000148BF704718
:10226000B619524141EB0101A3F10103704795F00A
:10227000000F37D04FEA11424FEA144721EA0246D5
:1022800024EA074C02FB07F106FB07F70CFB06F4F8
:1022900002FB0CFC14EB074441EB17414FEA1547D6
:1022A00014EB0C4441EB1C4125EA074C02FB07F5FB
:1022B00006FB07F70CFB06F602FB0CFC16EB0746C9
:1022C00045EB174516EB0C4645EB1C42121951F134
:1022D000000148BF7047B619524141EB0101A3F11B
:1022E000010370474FEA14454FEA114724EA0546B7
:1022F00021EA074C05FB07F106FB07F70CFB06F28A
:102300004FF0000605FB0CFC12EB074241EB1741B6
:1023100012EB0C4251EB1C4148BF7047921841EB45
:102320000101A3F101037047FEE700207047002080
:102330007047000010B500220449054802F06AF811
:102340000449034802F059F8002010BD2C0E00206B
:10235000500100202C06002030B5B3B00C460546D5
:10236000C8216846FEF74FF9294668462268FEF7FD
:1023700005F96846216801F01DFD2946044802F070
:102380003CF8034802F012F833B0002030BD0000E2
:102390005001002000207047094A10B5D2F8BC2235
:1023A000D2F814220AB1012010BD0A4601460448A1
:1023B00002F030F8BDE81040014802F0A5B8000076
:1023C000500100207047000070B598B00D460446DB
:1023D00000F044FA204600F045F90446284600F093
:1023E00041F905460020029002200126069019E0DE
:1023F000CDE9044617A902A800F096F988B1234652
:102400000BA2402107A8FDF7C3FF00F0D9F9C0B225
:1024100007AA0AA101F02AFD00F0D8F9012018B09E
:1024200070BD641CAC42E3D900F0D0F90020F6E79F
:10243000536563746F723A20256C75004572617341
:1024400065466C617368000072B6FEE7002229B130
:1024500001291AD002291BD04FF440720E490B6893
:1024600023F440730B600B6813430B600A6822F07F
:10247000F8020A600A68022303EBC00002430A6004
:10248000086840F48030086070474FF48072E5E7D8
:102490004FF40072E2E70000103C0240134801686C
:1024A00089050FD5016821F400710160016841F4CC
:1024B00000610160016821F400610160016841F47C
:1024C00000710160016849050FD5016821F4806140
:1024D0000160016841F480510160016821F480517C
:1024E0000160016841F4806101607047003C024076
:1024F00008490A6822F440720A600A6842F004023D
:102500000A600A684FF4803343EA002002430A60FD
:1025100070470000103C0240064A136823F44073E1
:10252000136013681360136843F0010313600170B4
:1025300070470000103C0240094910B50C6824F4B3
:1025400040740C600C6844F440740C600C6844F0F7
:1025500001040C600260BFF36F8F436010BD000088
:10256000103C0240074A136823F440731360136859
:1025700043F480731360136843F001031360018018
:1025800070470000103C0240074A136823F4407370
:102590001360136843F400731360136843F001037E
:1025A0001360016070470000103C02401749086842
:1025B000C206174805D5C26942F01002C261102256
:1025C0000A600A68920605D5C26942F00802C26133
:1025D00020220A600A68520605D5C26942F0040248
:1025E000C26140220A600A68120605D5C26942F03B
:1025F0000202C26180220A600A68920705D5C26998
:1026000042F02002C2610220086070470C3C024088
:102610003001002070B5114904460020C86100F067
:1026200031FA06460E4D09E0601C07D024B100F0D7
:1026300029FA801BA04201D9032070BD2868C0037D
:10264000F2D42868C00701D001202860286810F063
:10265000F200F2D0FFF7AAFF012070BD3001002088
:102660000C3C02401C49884201D2002070471B49A3
:10267000884201D2012070471949884201D20220C4
:1026800070471849884201D2032070471649884292
:1026900001D2042070471549884201D205207047B5
:1026A0001349884201D2062070471249884201D25C
:1026B000072070471049884201D2082070470F490F
:1026C000884201D2092070470D49884201D20A2070
:1026D00070470B2070470000004000080080000891
:1026E00000C0000800000108000002080000040803
:1026F000000006080000080800000A0800000C0896
:1027000000000E0870B5044600F0BCF90546601CD8
:1027100002D004480078044400F0B4F9401BA04201
:10272000FAD370BD000000202DE9F047044622488E
:102730000F46017E01290AD00121804601764CF224
:1027400050394846FFF766FF020003D02FE0022011
:10275000BDE8F0874FF0FF3038602068174D012842
:1027600001D0A6681CE0207C6168FFF7C1FE4846E6
:10277000FFF750FF0246286820F00400286014E0AC
:10278000217C3046FFF762FE4846FFF743FF020018
:10279000286820F0FA00286001D03E6005E0761C31
:1027A000D4E902100844B042EAD8FFF777FE0021CE
:1027B00088F818101046CBE730010020103C02408A
:1027C0000148C069704700003001002003480168DB
:1027D00041F000410160002070470000103C0240C1
:1027E0002DE9F0471B4E05461446307E1F468946AC
:1027F000012808D0012030764CF250384046FFF7CF
:1028000009FF18B114E00220BDE8F0879DB1012D49
:1028100016D0022D19D022463B464846FFF78CFEC3
:102820004046FFF7F7FE0C490A6822F001020A60F1
:1028300000213176E8E7E1B24846FFF76DFEEFE7A9
:10284000A1B24846FFF78EFEEAE721464846FFF769
:102850009BFEE5E730010020103C024007490020C4
:102860000A68002A09DA054A054B0C3A1360054B41
:1028700013600968002900DA01207047103C02400B
:1028800023016745AB89EFCD2DE9F84FDFF8BCA1F7
:102890000022012503264FF00F090AF1040BAAF1CB
:1028A000040E00BF0B6805FA02F42340A34270D166
:1028B0000F7907F00307012F01D0022F16D1876887
:1028C0004FEA420806FA08FC27EA0C07D1F80CC0C8
:1028D0000CFA08FC4CEA070CC0F808C04768A7438C
:1028E0000C79C4F3001494403C4344600C79E443F5
:1028F000A4070AD0C4684FEA420C06FA0CF7BC439E
:102900008F6807FA0CF72743C7600C7904F00304BB
:10291000022C12D1D40800EB840CDCF820405707BD
:10292000FF0E09FA07F824EA0804D1F8108008FA23
:1029300007F848EA0408CCF8208004684FEA420C03
:1029400006FA0CF7BC430F7907F0030707FA0CF7F8
:10295000274307604C6814F4403F70D03C4C276814
:1029600047F480472760246822F0030704F480447A
:102970000094384C07EB040CDCF8084897074FEA42
:10298000177809FA08F7BC43334FB84202D1002741
:1029900024E054E0314FB84201D101271EE0304F0E
:1029A000B84201D1022719E02E4FB84201D10327C6
:1029B00014E02D4FB84201D104270FE02B4FB8424D
:1029C00001D105270AE02A4FB84201D1062705E0C8
:1029D000284FB84201D1072700E0082707FA08F777
:1029E0002743CCF80878DAF800405746D1F804C0FD
:1029F0009C435FEACC2C00D51C433C60DBF80040D4
:102A00005F46D1F804C09C435FEA8C2C00D51C4380
:102A10003C60DEF800407746D1F804C09C435FEA92
:102A20008C3C00D51C433C60084F083F3C68D1F803
:102A300004C09C435FEACC3C00D51C433C60521C64
:102A4000102AFFF42FAFBDE8F88F0000083C0140CA
:102A500044380240003001400000024000040240BF
:102A600000080240000C0240001002400014024026
:102A700000180240001C02400AB18161704709043D
:102A8000FBE700000148806870470000000000205C
:102A9000024881680278114481607047000000207C
:102AA0000B4810B5016841F400710160016841F400
:102AB00080610160016841F480710160032000F0D1
:102AC0006FF80F2000F006F800F024F8002010BD89
:102AD000003C024070B50D4D04464FF47A712878E1
:102AE000B1FBF0F00A490968B1FBF0F001F006F81B
:102AF00048B9102C07D200222146501E00F030F8B1
:102B000000206C6070BD012070BD0000000000203E
:102B10000C0000200A4808B5016841F480410160BA
:102B2000006800F4804000900548001F016841F0F3
:102B300080510160006800F08050009008BD0000E6
:102B400044380240002809DB00F01F0201219140B7
:102B50004009800000F1E020C0F80011704700003B
:102B6000F0B40E4B1B680C46C3F30223C3F10705F8
:102B7000042D00D90425191D072901D2002300E0E6
:102B8000DB1E012606FA05F1491E214099409E40B0
:102B9000761E16403143F0BC03F004B90CED00E0A2
:102BA000064900F0070208684FF6FF03184040EAA4
:102BB0000220034A10430860704700000CED00E05B
:102BC0000000FA0570470068416200207047F0B5C8
:102BD0000368586A39B19C6A4FF4827600EB14445A
:102BE00000204D1E0AE040EA024098620FE006EB2A
:102BF0008007DF59401C04EB1744C0B2A842F6D34B
:102C000044EA02404FF4807202EB810158500020E8
:102C1000F0BDD0F8E00401F00ABF01EBC10200EB07
:102C20008202D0F8E004126A01F05FBE01EBC1023B
:102C300000EB8202D0F8E004D2F8602201F0B0BECE
:102C4000D0F8E00401F0F5BE0A0601F00F0101EB37
:102C5000C10100EB810101D5143101E001F51571CD
:102C6000006802F0D5BD70B504460B0601F00F00F8
:102C700000EBC00104EB81014FF001024FF00005B1
:102C800002D54A75143103E081F8555201F51571EA
:102C9000087094F89404012808D084F894242068DB
:102CA00002F0D0FA84F89454002070BD022070BD68
:102CB00070B5044601F00F002279904201D901203D
:102CC00070BD0B0601F00F0101EBC10104EB8101A6
:102CD0004FF001024FF0000502D54A75143103E0B0
:102CE00081F8555201F515718D70087094F89404AF
:102CF000012808D084F89424206802F015FC84F898
:102D00009454002070BD022070BD01F00F0101EB52
:102D1000C10100EB8100D0F8680270472DE9F04155
:102D200004460F0601F00F0000EBC00104EB810127
:102D30004FF001064FF0000502D54E75143103E047
:102D400081F8555201F51571C2F30A0208708A60C4
:102D50000B714A7802B14883022B00D14D7194F86F
:102D60009404012809D084F89464206802F0BCF926
:102D7000284684F89454BDE8F0810220FBE710B5A2
:102D800001F00F0404EBC40100EB8101C1E99823B9
:102D90000023C1F8683281F8553281F854428379B2
:102DA00001F51571012B00D1CA618279006802F02A
:102DB00013FC002010BD70B504460D4601F00F0055
:102DC0002179884201D9012070BD29064FF0000603
:102DD0004FF0010206D500EBC00104EB81014A75FA
:102DE000143107E005EBC50104EB810181F8556260
:102DF00001F515718A70087094F89404012807D0C1
:102E000084F89424206802F0BBFB280702D007E076
:102E1000022070BDA17904F29C42206802F058FBA8
:102E200084F89464002070BD10B501F00F0404EB29
:102E3000C40100EB8101C1E9082300238B62012357
:102E40004B7501F8144F8379012B00D1CA61827947
:102E5000006802F0C1FB002010BD00002DE9FC5FFE
:102E600005680446284602F06FFD00287DD12068E1
:102E700002F0C2FD002878D0D5F80808C0F30D2074
:102E8000C4F8D404206802F0B7FD800704D5206898
:102E9000416901F002014161206802F0ADFDC10607
:102EA00004F29C40009034D52068816921F0100123
:102EB00081612F6A07F00F0000EBC00004EB800671
:102EC000C7F3434006F51576022802D0062811D034
:102ED0001AE047F6F070074216D0C7F30A121746F9
:102EE0002846F16802F08CFDF0683844F0607069A3
:102EF000384408E008222846009902F081FD7069F4
:102F0000C7F30A11084470612068816941F010011B
:102F10008161206802F070FD00034FF0080B4FF054
:102F2000000A4FF001097CD50026206802F043FD1D
:102F3000074674E0F80770D0F1B2206802F054FD43
:102F40008046C00707D005EB4611C1F8089B314603
:102F5000204600F077FE5FEA087024D505EB4611A5
:102F6000C1F808BB2068016C00E023E200EB4610CA
:102F70000191D0F8082BFB4B994205D9110403D5D8
:102F80004FF40041C0F8081B204600F0F0FAF54964
:102F90000198884207D9A079012804D1206801212D
:102FA000009A02F095FA5FEAC86004D505EB461175
:102FB0001020C1F8080B5FEA88701DD5686900060B
:102FC00005D5D5F8040840F48061C5F8041806EB6F
:102FD000C60004EB800090F8571200F51570012927
:102FE00005D180F803A0F1B2204600F0E9F905EB25
:102FF00046110220C1F8080B5FEA886004D505EB92
:1030000046102021C0F8081B5FEA884005D505EB73
:1030100046104FF40051C0F8081B7F08761C002FA3
:1030200088D1206802F0E8FC40036ED5206802F0E9
:10303000BBFC0746002666E0F80762D0F1B22068C4
:1030400002F0C0FC8046C00723D006F00F01D5F87F
:10305000342809FA01F18A43C5F8342805EB4611F2
:10306000C1F80899A07901280FD106EBC60004EB3E
:103070008000D0E907211144016236B9606A20B9A5
:1030800020680121009A02F023FAF1B22046FFF7EE
:10309000C4FD5FEA087003D505EB4611C1F808B915
:1030A0005FEAC86004D505EB46111020C1F8080995
:1030B0005FEA486004D505EB46104021C0F80819C6
:1030C0005FEA887016D53146284602F012FC06EBFE
:1030D000C60004EB8000C17D1430012905D180F8C1
:1030E00003A0F1B2204600F067F905EB461102207B
:1030F000C1F808095FEA086003D53146204600F0B0
:1031000007FE7F08761C002F96D1206802F074FC21
:10311000002811DAD5F8040820F00101C5F80418D8
:1031200094F8CC0401282BD0204600F005FA206842
:10313000416901F000414161206802F05DFC000539
:103140000BD5D5F80808C00702D0204600F038FAA1
:103150002068416901F400614161206802F04CFC83
:10316000C00467D5D5F8040820F00100C5F80408AC
:103170001021206802F0BDFB00214FF67F3220E0D5
:1031800084F8CCA400212046FFF71CFDCFE700BF48
:1031900005EB4110C0F80829D0F8003923F40013DA
:1031A000C0F80039C0F8082BD0F8003B23F4001316
:1031B000C0F8003BD0F8003B43F00063C0F8003B90
:1031C000491C20798842E3D8D5F81C0840F0011149
:1031D000C5F81C18E07B002828460DD0D0F88408DC
:1031E00040F00B01C5F88418D5F8440840F00B01F5
:1031F0002846C5F844180DE0D0F8140842F22B0117
:103200000843C5F81408D5F8100840F00B0128460B
:10321000C5F81018D0F8000820F4FE61C5F80018B1
:10322000A1792068009A02F053F92068416901F4FD
:1032300080514161206802F0DFFB800415D52068D1
:1032400001F092FF206802F072FBE07100F06AFA70
:103250000146E279206802F031FC204600F056F980
:103260002068416901F400514161206802F0C4FB0B
:10327000000707D5204600F063F92068416901F096
:1032800008014161206802F0B7FB000616D5A86965
:1032900020F08001A96101260DE000BF06EBC60009
:1032A00004EB800090F85702012803D1F1B22046C8
:1032B000FFF7CAFC761C2079B042EFD8206802F0F4
:1032C0009BFBC0021FD501264F4614E005EB4610BC
:1032D000D0F8001906EBC60004EB8002107E01282E
:1032E00008D1002906DAF0B240F08001D7752046F7
:1032F000FFF7AAFC761C2079B042E7D82068416924
:1033000001F480114161206802F076FB800234D51F
:1033100001204A4629E000BF05EB4011D1F8001B0F
:1033200000EBC00304EB830393F85862012E1BD11A
:10333000002919DA94F8D46401F4803106F001060A
:10334000B14211D183F85722A96941F08003AB61E2
:103350006969090608D4D5F8040840F40070C5F876
:10336000040805E00A30544F401C21798142D3D82B
:103370002068416901F400114161206802F03CFBC2
:10338000400007D52046FFF744FC2068416901F062
:1033900080414161206802F02FFB40070AD5206878
:1033A0004568680702D52046FFF74AFC2068416857
:1033B00029434160BDE8FC9FD0F8E00401F08FBBD9
:1033C000D0F8E00401F09FBBF8B5040005D094F8F4
:1033D00095042668002510B106E00120F8BD84F8A8
:1033E0009454204600F056F8032084F89504B6F172
:1033F000A04F00D1A571206802F064F8207C8DF800
:10340000000094E80F0001F0BDFE0226B8BB0021C9
:10341000206802F014FB90BB002001270DE000BFE4
:1034200000EBC00104EB81014F750875C8850D766E
:10343000CD610D62401CC0B24D6221798142EFD84E
:10344000002011E000EBC00104EB810181F855522E
:1034500081F8540281F85852C1F85C52C1F86052A8
:10346000401CC0B2C1F8645221798142EAD8207C64
:103470008DF8000094E80F0001F066FF10B184F8A9
:103480009564AAE7657484F89574206801F04EFF8E
:103490000020F8BD10B586B0044614216846FDF73B
:1034A000B2F817492068884227D1164C00202168BD
:1034B00041F002012160216801F0020105914FF401
:1034C000404100910221CDE90110032003900C201E
:1034D000049069460C48FFF7D7F9206840F0005087
:1034E00020602068002200F00050059011464D2019
:1034F000FFF736FB4D20FFF725FB06B010BD00009F
:1035000000000440303802400004024070B5044618
:10351000C079012570B1022801D0FEF795FF294638
:10352000D4F8E00401F05DFBD4F8E004BDE870409D
:1035300001F012BB0025F2E7D0F8E00401F03ABB3D
:10354000D0F8E00401F040BB10B5044690F89404B4
:1035500001280AD0012084F894046174206802F0E4
:103560009CFA002084F8940410BD022010BDD0F80D
:10357000E02400F29C41104601F03FBB10B5044628
:10358000006894F89414012909D0012184F8941456
:10359000C168490609D5617B012902D005E00220F6
:1035A00010BD816B41F480318163206802F07FF9A6
:1035B000206801F0ADFE002084F8940410BD0000E6
:1035C00010B50446D0F8E00401F059FB2068D0F8AB
:1035D000001E41F00101C0F8001EE07A002804D06E
:1035E0000248016841F00601016010BD10ED00E0E5
:1035F0002DE9F0470E46050065D0DFF81481D8F8B4
:103600000000F7B200F00700B04207D288F800705F
:10361000D8F8000000F00700B04254D128683D4CB3
:10362000810712D5400703D5206840F4E0502060A0
:103630002878000703D5206840F4604020602068A7
:10364000A96820F0F000084320602878C0072DD03A
:10365000304968680839012812D0022813D003289D
:1036600011D00968890700292DDA216821F00301AA
:1036700001432160FFF706FA814641F2883A0EE0E5
:1036800009688903EFE709688901ECE7FFF7FAF9B0
:10369000A0EB0901514502D90320BDE8F08720685D
:1036A000696800F00C00B0EB810FEFD1D8F8001082
:1036B000404601F00701B14207D90770006800F0E9
:1036C0000700B04201D00120E7E72878400705D580
:1036D0002068E96820F4E05008432060287800075B
:1036E00006D52068296920F4604040EAC1002060C6
:1036F00000F01EF82168084AC1F30311515CC8406C
:103700000649086006480068FFF7E4F90020C4E7AE
:10371000003C0240083802401C6700080C000020F2
:103720000400002001480068704700000C000020E1
:10373000154810B5006810F00C02144813D0411061
:10374000042A0FD0082A0ED10F4C241F22682368A8
:1037500002F03F025B0207D52068C0F38810A0FB8F
:10376000010106E0084610BD2168C1F38811A1FBE4
:1037700000010023FCF794FD2168C1F30141491CBD
:103780004900B0FBF1F010BD083802400024F400FD
:103790002DE9F84F04006ED02078DFF84C93C00775
:1037A000A9F104054AD009F104000168C1F38101BF
:1037B000012908D00068C0F3810002280AD1D9F895
:1037C0000000400206D52868800337D560680028CD
:1037D000E1D033E06068B0F5803F10D0B0F5A02FA5
:1037E000286810D020F480302860286820F48020D9
:1037F00028606068A8B1FFF745F906460DE0286823
:1038000040F48030F4E740F480202860F7E700BF00
:10381000FFF738F9801B642873D828688003F7D530
:103820000CE0FFF72FF9064605E000BFFFF72AF985
:10383000801B6428F0D828688003F7D42078DFF84C
:10384000AC8280074FF0000A3ED5A748001D0168F2
:1038500011F00C0F08D00068C0F3810002280BD1D2
:10386000D9F80000400207D42868800716D5E06820
:10387000012800D112E033E1E068B8B10120C8F8B6
:103880000000FFF7FFF8064605E000BFFFF7FAF873
:10389000801B0228C0D828688007F7D528682169CE
:1038A00020F0F80040EAC10028600DE0C8F800A050
:1038B000FFF7E8F8064604E0FFF7E4F8801B02286B
:1038C0001FD828688007F7D42078000722D5864FB4
:1038D00087486169703771B101210160FFF7D2F843
:1038E000064604E0FFF7CEF8801B022809D83868A6
:1038F0008007F7D50EE0C0F800A0FFF7C3F8064632
:1039000005E082E0FFF7BEF8801B02287DD838680A
:103910008007F7D42078400768D5DFF8CCB10027BE
:103920000BF13C0BDBF80000C0000BD4DBF80010FF
:1039300041F08051CBF80010DBF80000012700F0C7
:10394000805000906B4E3068C00510D4306840F451
:1039500080703060FFF796F8009005E0FFF792F86E
:103960000099401A022850D83068C005F6D55E4E3E
:10397000A0686C3601280FD00528306810D020F0E0
:1039800001003060306820F004003060A068B8B1F9
:10399000FFF778F800900FE0306840F00100F4E79E
:1039A00040F004003060F7E7FFF76CF80099411A27
:1039B00041F28830814266D830688007F4D50EE045
:1039C000FFF760F8009007E0FFF75CF80099411AF4
:1039D00041F28830814256D830688007F4D42FB144
:1039E000DBF8001021F08051CBF80010A069C8B3BB
:1039F0003D49091D0968C1F3810102294AD0022805
:103A0000504607D0C8F8600000E03CE0FFF73AF805
:103A100004463BE04746C8F86000FFF733F8064627
:103A200005E000BFFFF72EF8801B02282BD828687E
:103A30008001F7D4D4E907010843A16A2E4A490856
:103A400002EB0141626A41EA8211084394F82C10AA
:103A500040EA0161C9F8001001203866FFF712F84A
:103A6000044606E03EE000BFFFF70CF8001B02280A
:103A700009D828688001F7D534E000BFFFF702F8C5
:103A8000001B022802D90320BDE8F88F28688001B6
:103A9000F4D427E00128F7D0D9F80000E26900F457
:103AA000800191421CD1226A00F03F01914217D15E
:103AB00047F6C071626A0140B1EB821F10D1A26A61
:103AC0004FF0FF3300F4403103EB5202B1EB024FF1
:103AD00006D194F82C1000F07060B0EB016F01D0AB
:103AE0000120D1E70020CFE7043802400000474220
:103AF000800E4742007000400000FFFF10B5401EDE
:103B0000B0F1807F01D3012010BD4FF0E02460614F
:103B10000F21601702F046F90020A0610720206104
:103B2000002010BDFEE70000F0B500230A24302578
:103B300037261F4611E000BFB4EB107F02D905EB1A
:103B4000107C01E006EB107C01F813C001EB430C84
:103B500000015B1C8CF80170DBB29342ECD3F0BD2A
:103B600070B586B014216846FCF74DFD1A48002454
:103B7000016841F004010160016801F00401059150
:103B8000016841F080010160016801F08001059148
:103B9000016841F001010160016801F00101059136
:103BA000016841F00201016000680C4E00F0020063
:103BB0004FF49E750590002229463046FEF75CFFC3
:103BC00001200095CDE90104694630460394FEF7D3
:103BD0005BFE06B070BD00003038024000000240BD
:103BE00010B501220F49104800F05AFE08B1FEF747
:103BF0002BFC0E490C4801F06EF808B1FEF724FCCE
:103C00000B49094800F0EEFB08B1FEF71DFC064821
:103C100001F0E4F8002803D0BDE81040FEF714BC22
:103C200010BD00001000002050010020CC0000203A
:103C300060000020FEE7FEE70148FFF70FB9000033
:103C40004C1800202DE9F04103680D4604461E6C17
:103C500003EB4511D1F8080B94F806E04FF4004748
:103C60004FF0200C04F29C42BEF1010F09D0DFF8A6
:103C700098E0764539D1020432D500BFC1F8087BFF
:103C80003FE0224B5FEA007E04D59E4239D9000412
:103C9000F4D436E05FEA806E02D5C1F808CB30E09C
:103CA00010F0280F2DD19E4201D90004E6D405EB77
:103CB000C50004EB8000D1F8101BD0F87432C1F3BA
:103CC0001201591AC0F8681200F51570ADB90369F0
:103CD0001BB1C2681144C1600FE0012120680AE0F5
:103CE00080060AD5C1F808CB07E035B9D4F86402DC
:103CF00018B90021184601F0EBFBE9B22046FEF7A7
:103D000095FF0020BDE8F0810A31544F0A30544F2E
:103D10002DE9F84F0E4601EBC60100EB8104814608
:103D20000568D4E909101434884202D90120BDE89D
:103D3000F88F081AA168814200D20846C01C870883
:103D400005EB46181BE000BFA0EB010AA068504538
:103D500000D282460AF10300870899F80600009015
:103D60001FFA8AF3F2B22846E16801F01BFFE1680E
:103D700001EB0A00E060616901EB0A006061D8F8BC
:103D8000180980B2B84205D3D4E90401814201D2B6
:103D90000028D9D1D4E90401884208D806F00F01DF
:103DA00001208840D5F834188143C5F83418002024
:103DB000BDE7704710B5044610A1FCF7CDFBA0424B
:103DC00001D111A016E014A12046FCF7C5FBA042CA
:103DD00003D1BDE8104000F097B814A12046FCF7CD
:103DE000BBFBA04205D104F10F00BDE8104001F07B
:103DF000EDBE12A0BDE8104000F0C6B846532063E7
:103E00006F6E6E6563740000636F6E6E6563742021
:103E100073756363657373004653207265717565CE
:103E2000737420706F696E747300000046532073C2
:103E3000656E6420706F696E74733A00556E6B6EB8
:103E40006F776E20636F6D6D616E6400064A0021AE
:103E500002EB810393ED000A00EB8103491C83ED23
:103E6000000A0A29F4DB704700000E0830B599B04B
:103E700015468DF8000020220DF10100FCF7EAFB49
:103E800000248DF82040402229460DF12100FCF746
:103E9000E1FB8DF86040684600F008F819B030BDCD
:103EA00070470178407841EA0020704700B5C3B000
:103EB00000F121020178CDE90012431C05A24FF464
:103EC000807102A8FCF764FA81B202A8FEF764FAD6
:103ED00043B000BD4572726F7220696E2070726FC0
:103EE000636573733A2025730D0A48414C5F537420
:103EF000617475733A2025640D0A44657461696CB8
:103F00003A2025730D0A0000F0B5C3B01548FFF73D
:103F10009DFF15A24FF4807102A8FCF739FA114FEA
:103F2000044600250DF1080657F8250002F0F8FABE
:103F3000CDE90001C4F58071301911A2FCF728FA0F
:103F40000444092D06DAC4F5807130190DA2FCF77E
:103F50001FFA04446D1C0A2DE6DB02A800F014F8D9
:103F600043B0F0BD08010020436F6E74726F6C6C3B
:103F700065722073656E6420706F696E74733A00A9
:103F8000256600002C00000000B5C1B0034606A263
:103F90004FF480716846FCF7FBF981B26846FEF782
:103FA000FBF941B000BD000025730D0A00000000C0
:103FB000FEF76EBD30B593B030216846FCF723FBA9
:103FC00014210CA8FCF71FFB1C480025016841F0D8
:103FD00080510160006800F080501190184801681D
:103FE00041F4804101600068022400F48040119097
:103FF00001200090000401908001CDE906400420DA
:1040000008904820CDE9090403200B906846FFF78B
:10401000BFFB08B172B6FEE70CA90F2081E83100A2
:104020004FF48050CDE90F0502210CA8FFF7E0FA0C
:10403000002801D072B6FEE713B030BD4038024010
:10404000007000400248016841F47001016070474F
:1040500088ED00E02DE9F0410C46D0F8D412D0F8FC
:10406000C82200EB8101D1F8C01229B304F00F0679
:1040700006EB860300EB83050027AB694BB106EB2B
:10408000C60602EB8602D269B3FBF2F602FB1632D9
:10409000A2B1C1F81472D0F8D42200EB8200D0F89B
:1040A000C40203692BB1D1F80802224601F504715C
:1040B00098470020BDE8F0810320FBE700231A4663
:1040C0002146AF6100F0E8FDF3E770B50546D0F892
:1040D000D40205EB8000D0F8C04294B1284600F02D
:1040E000B7FCC4F80C02D5F8D412D4F8040205EBDE
:1040F0008101D1F8C412CA6804F503719047002009
:1041000070BD032070BD000070B5224D04462978B3
:1041100000F0E2FB2878002600F00F0000EB8000A2
:1041200004EB800086846978204600F0D5FB68782F
:1041300000F00F0000EB800004EB8000A0F8646149
:10414000A978204600F0C8FBA87800F00F0000EB2B
:10415000800004EB80008684C684D4F8D40204EB8B
:104160008000D0F8C01299B1D0F8C40240688047EE
:10417000D4F8D40204EB8000D0F8C00200F0AFFF06
:10418000D4F8D40204EB8000C0F8C062C4F8BC626A
:10419000002070BD7800002010B5D0F8D41200EBDC
:1041A0008100D0F8C04284B1D0F8C41259B194F85B
:1041B0000002FF2807D08B6894F801222146984717
:1041C000FF2084F80002002010BD032010BD000075
:1041D0000A210180004870477C00002070B5064627
:1041E00082210C4800F086FA05460121094800F0BA
:1041F00081FA04468121074800F07CFA0DB11021B4
:10420000A971402104B1A18000B181804320308098
:10421000004870BD8800002070B5064682210D4818
:1042200000F068FA054601210A4800F063FA0446E6
:104230008121084800F05EFA0DB11021A9714FF4F8
:10424000007104B1A18000B1818043203080014819
:1042500070BD00008800002070B5064682210C4821
:1042600000F048FA05460121094800F043FA0446E7
:104270008121074800F03EFA0DB11021A9714021BB
:1042800004B1A18000B1818043203080004870BD1E
:10429000880000202DE9F04704464FF407752846B2
:1042A00000F01EFF06004FF0000863D02946FCF71F
:1042B000AAF9D4F8D4023C4D04EB80004FF0100969
:1042C000C0F8C062C4F8BC62207C4FF4007A0127B9
:1042D000F0B3402302222978204600F028FC2878F9
:1042E000402300F00F0000EB800004EB8000878487
:1042F00002226978204600F01AFC6878082300F052
:104300000F0000EB800004EB80000322A0F8647132
:10431000A978204601F00F0101EB810104EB810136
:10432000A1F82690A97800F002FCA87800F00F0010
:1043300000EB800004EB80008784C6F80482D4F888
:10434000D402474604EB8000D0F8C402006800E0C5
:1043500018E006F5017680473761776132687AB1F7
:10436000207CF8B140236978204600F0ECFB002067
:10437000BDE8F087D4F8D41204EB8101C1F8C08203
:104380000220F5E7534602222978204600F0CFFBB1
:104390002878534600F00F0000EB800004EB80000B
:1043A0008784A5E75346DEE77800002010B5D0F8F3
:1043B000D41200EB8101D1F8C01259B1027C084C33
:1043C000002AD1F8042207D04023617800F0BBFB1B
:1043D000002010BD032010BD4FF40073F5E700006E
:1043E0007800002039B1D0F8D42200EB8200C0F868
:1043F000C4120020704703207047D0F8D42200EB8D
:104400008200D0F8C00218B1C0F804120020704732
:1044100003207047D0F8D43200EB8300D0F8C002FC
:1044200028B1C0F81022C0F80812002070470320FD
:1044300070472DE9FC410646D0F8D4020C4606EB45
:1044400080000021D0F8C0728DF80010ADF8041083
:104450000D4637B1217811F060022FD0202A4BD1C0
:1044600002E00320BDE8FC81E288F2B109060DD527
:10447000D0F8C40263783946D0F808C01846E0473F
:10448000E288072A00D9072239462DE0607887F8AC
:104490000002E088402800D34020C2B287F8012201
:1044A0003946304600F081F82BE0D0F8C40263783A
:1044B0000022866821461846B04722E0607830B175
:1044C00001281ED00A2809D00B2815D110E096F833
:1044D0009C02032810D1022201A905E096F89C0253
:1044E000032809D101226946304600F078F808E037
:1044F00096F89C02032804D02146304600F04AF882
:1045000003252846AEE7000010B5D0F8D41200EB22
:104510008101D1F8C02201211AB1D2F8143213B1AD
:1045200016E0032010BD0121C2F814120949D2F887
:104530001032097801F00F0404EB840400EB8404CA
:10454000A361D2F81032D2F8082200F0A5FB0021B6
:10455000084610BD7800002010B5D0F8B82200241D
:104560005268904700B10324204610BD00207047D8
:1045700000207047134610B50A46002100F0E3FA08
:10458000002010BD134610B50A46002100F084FB40
:10459000002010BD10B50446802100F05EFB2046CF
:1045A000BDE81040002100F058BB10B50323C0F84F
:1045B0009432C0F858211346C0F85C210A46002105
:1045C00000F0C1FA002010BD10B50521C0F894120A
:1045D00000231A46194600F0B6FA002010BD10B5A7
:1045E0000223C0F8943282611346C2610A46002158
:1045F00000F052FB002010BD10B50421C0F8941249
:1046000000231A46194600F047FB002010BDF8B5FC
:1046100004460020ADF8000048880D46010A08292C
:104620005FD2DFE801F05E0409175E5E3C45D4F816
:10463000B412207C0A6819E0207C02260028D4F8F5
:10464000B80205D0C16A684688470146467039E01D
:10465000816AF8E7C0B2062843D2DFE800F0030A17
:104660001014181CD4F8B402426805E0694690475B
:104670001CE0D4F8B402826892B3207CF6E7D4F848
:10468000B402C268F8E7D4F8B4020269F4E7D4F8D7
:10469000B4024269F0E7D4F8B4028269ECE7207C06
:1046A000F0B9D4F8B802416B68468847014609E082
:1046B000207CA8B9D4F8B802016B68468847014647
:1046C00007204870EA888AB1BDF8000040B18242F4
:1046D00000D90246ADF800202046FFF780FFF8BD64
:1046E000FFE729462046FFF755FFF8E72046FFF78A
:1046F00083FFF4E778B50E4642880178002504462A
:104700008A4212D9ADF800100AE0694600F019F8A3
:104710004178052904D181780546B14205D00025AC
:104720006188BDF800209142EFD8284678BD014647
:10473000002002E0401CC0B2491C0A78002AF9D1CE
:1047400070470A8803781A440A8001780844704741
:1047500070B516460D46002820D00446FFF7E7FF47
:10476000022101EB40014FF40070814204D8204641
:10477000FFF7DDFF4000801C308030782870032078
:1047800068700220002206E02954401CC0B22A545E
:10479000401CC0B2641C21780029F5D170BD010015
:1047A0004FF0000004D0012901D0022901D00320DC
:1047B000704701207047000010B50A46024903A067
:1047C000FFF7C6FF004810BD2C04002043444320DF
:1047D000436F6E66696700001220088000487047CA
:1047E0003000002010B50A46024903A0FFF7B0FFD1
:1047F000004810BD2C04002043444320496E7465DA
:1048000072666163650000000420088000487047FC
:104810002C00002010B50A46024903A0FFF798FFBC
:10482000004810BD2C04002053544D6963726F651D
:104830006C656374726F6E696373000010B50A462D
:10484000024903A0FFF784FF004810BD2C0400209C
:1048500053544D3332205669727475616C20436F26
:104860006D506F727400000010B51A2008800A485D
:104870000168001D0468001D0068081809D008229E
:104880000649FFF751F90549042210312046FFF788
:104890004BF90248801E10BD107AFF1F4600002011
:1048A00078B10023C0F8B832C0F8C432C0F8D032B2
:1048B00009B1C0F8B412012180F89C12027000F016
:1048C000CBB80320704710B5D0F8C802FEF7F0F956
:1048D000BDE81040FFF763BF10B5D0F8C802FEF77F
:1048E000C2F9BDE81040FFF75ABF2DE9F041174665
:1048F0000446002521B194F89C02032842D04CE0E4
:10490000D4F8941204F11400022935D1D0E90263DD
:104910009E4206D9F21A826039462046FFF732FEDF
:104920000FE0B34214D14068984211D3D4F89812E2
:1049300088420DD2002211462046FFF723FEC4F81C
:10494000985200231A461946204600F0FCF813E05E
:1049500094F89C02032808D1D4F8B802C16821B1A8
:10496000C4F8D452C168204688478021204600F010
:1049700074F92046FFF728FE94F8A00268B184F885
:10498000A0520AE0D4F8B802426932B1C4F8D45255
:10499000426920469047002800D10020BDE8F08100
:1049A00070B513460446002221B194F89C020328F6
:1049B00030D03AE0D4F8941204F5AA70032934D127
:1049C000D0E902518D420AD96A1A826008468242B1
:1049D00000D3024619462046FFF7CCFD25E094F8A7
:1049E000AA0210F01F0003D0012802D0022800D034
:1049F000002294F89C02032808D1D4F8B802016977
:104A000021B1C4F8D4220169204688472046FFF727
:104A1000F3FD0AE0D4F8B802836933B1C4F8D422B4
:104A2000826920469047002800D1002070BD0020F8
:104A3000704710B50024012180F89C12D0F8B822EC
:104A400022B152680179904700B10324204610BD7D
:104A5000D0F8C802FEF759B910B50178012929D15B
:104A600015490222C1F8E004C0F8C81213480860D2
:104A700006200871CA71002088714A728872C87253
:104A800008738873C87308740846FEF79DFC08B164
:104A9000FDF7DAFC4FF400710748FEF794F8802226
:104AA00000210548FEF793F84FF4BA72012102483D
:104AB000FEF78DF8002010BD4C18002000000440C7
:104AC0000A0601F07F01D0F8C80201EBC10100EB3A
:104AD000810001D5807D704790F85602704710B56F
:104AE000D0F8D42200EB8202D2F8B82222B190F89A
:104AF0009C32032B02D004E0032010BD126A02B1E5
:104B00009047002010BD10B5D0F8D42200EB8202EF
:104B1000D2F8B82222B190F89C32032B02D004E0E4
:104B2000032010BD526A02B19047002010BD10B59D
:104B30001C461346D0F8C8022246FEF7EFF8BDE83F
:104B40001040FFF72CBE10B5D0F8C802FEF717F9D9
:104B5000BDE81040FFF723BE2DE9F04100260125F6
:104B6000044680F89C52C4F894626660C4F8A4625B
:104B700080F8A062D0F8B80230B1426822B10021BA
:104B80002046904700B103260022402311462046CC
:104B9000FFF7CDFF4027A4F864513B460022802157
:104BA0002046C4F86071FFF7C2FFA5843046276233
:104BB000BDE8F08190F89C12042903D190F89D1271
:104BC00080F89C120020704710B590F89C120329C1
:104BD00005D1D0F8B81211B1C96901B188470020D8
:104BE00010BD01740020704710B5D0F8C802FEF760
:104BF000ABFCBDE81040FFF7D2BD70B5044600F233
:104C0000AA20054600F051F80120C4F89402B4F837
:104C1000B002C4F8980294F8AA0210F01F010AD05A
:104C200001290ED0022912D000F080012046BDE8F3
:104C3000704000F012B829462046BDE8704000F0F0
:104C4000CFB829462046BDE8704000F00FBA29468B
:104C50002046BDE8704000F059B910B5D0F8C80240
:104C6000FEF7A9F8BDE81040FFF799BD10B5D0F8E0
:104C7000C802FEF783FCBDE81040FFF790BD90F836
:104C80009C12042903D090F89C1280F89D120421F4
:104C900080F89C120020704710B5D0F8C802FEF7CB
:104CA000C3F8BDE81040FFF77ABD70B5054611F8AE
:104CB000010B2870087868704C1C2046FFF7F1F84B
:104CC0006880A41C2046FFF7ECF8A880A01CFFF722
:104CD000E8F8E88070BD38B504460020ADF8000063
:104CE000A1B1C4F8B812D4F8D40204EB8000D0F813
:104CF000B802C16A19B168468847C4F8D002D4F82E
:104D0000D802401CC4F8D802002038BD032038BDAA
:104D100002460020D2F8B832002B02D01B681046A1
:104D2000184770472DE9F04188462B4E89780025B9
:104D300004463170012906D941462046FFF72AFC76
:104D40000320BDE8F08194F89C02022702280CD0D1
:104D500003281DD041462046FFF71CFC3178204631
:104D6000FFF7FAFB03252846EBE789B3204661608D
:104D7000FFF7CEFF050004D041462046FFF70AFCAE
:104D80001DE02046FFF738FC032084F89C02EAE788
:104D9000C1B1606888421BD0C1B22046FFF7DCFB7E
:104DA000317820466160FFF7B3FF050010D041461F
:104DB0002046FFF7EFFB21792046FFF7CDFB84F873
:104DC0009C72D0E784F89C7220466160FFF7C4FBB8
:104DD0002046FFF711FCC6E774000020FFF746BF2E
:104DE0002DE9F0410A78002512F060020CD0202A4B
:104DF00001D0402A7DD1D0F8D42200EB8202D2F833
:104E0000B8229268904731E04B78002201260A2BA5
:104E10006FD2DFE803F041666E586E08056E2D29EB
:104E2000FFF7F5FB67E004468888D8B9C888C8B999
:104E30004888802816D200F07F0794F89C02032847
:104E400010D084F89E7239462046FFF7CDFE2046EA
:104E5000FFF7D2FB1FB1022084F89C024BE084F8DC
:104E60009C6248E0204644E0FFF75CFF054642E0D4
:104E7000CB88012B3DD190F89C32012B04D0022B22
:104E800002D0032B35D104E08260012200F1080139
:104E900016E00122011D13E090F89C22012A03D0A4
:104EA000022A01D0032A24D1CA88022A21D1C6604D
:104EB000D0F8A41209B10321C160022200F10C0153
:104EC000FFF78DFB17E04A88012A02D0022A03D09F
:104ED0000FE0C0F8A46216E08988090A80F8A012E1
:104EE00011E090F89C32012B08D0022B06D0032B46
:104EF00004D0FFF74FFB2846BDE8F081498801291F
:104F0000F9D1C0F8A422FFF777FBF4E72DE9F041CF
:104F1000054608780C790E464FF0000810F0600046
:104F20000BD0202801D040286AD121462846FFF71F
:104F30001DFBFF2800D0D8B395E07078C8B30128D6
:104F400024D003285CD195F89C02022802D00328C3
:104F500056D10CE0002C53D0802C51D0214628464D
:104F6000FFF77BFE80212846FFF777FE7BE0708805
:104F700040B93CB1802C05D0C88818B921462846D4
:104F8000FFF76BFE2846FFF737FB6CE095F89C02B5
:104F90000228DFD0032863D1708880BB600603D06D
:104FA00021462846FFF78FFC2846FFF725FBBCE784
:104FB00000E00AE0C5F8D402D5F8B8028268F2B180
:104FC00031462846904780464DE095F89C020027E0
:104FD000022802D0032843D113E00CB1802C3FD12A
:104FE000200604F07F0000EB800005EB800101D576
:104FF000143101E001F5AA7102220F602CE032E0C9
:105000002EE0200604F00F0000EB800005EB80008E
:1050100009D5808C20B304F07F0000EB800005EB05
:10502000800614360AE0B0F86401C8B104F07F00CD
:1050300000EB800005EB800606F5AA764CB1802CCB
:1050400007D021462846FFF73BFD10B10120306014
:1050500000E03760022231462846FFF7C0FA02E03E
:105060002846FFF797FA4046BDE8F08170B505463F
:10507000087800240E4610F0600003D0202801D0EC
:10508000402827D195F89C02012803D0022801D09E
:1050900003281FD1B088C1B201291AD8C1B228464D
:1050A000FFF766FAFF280CD058B9D5F8B8128A680D
:1050B0003AB1C5F8D4028A6831462846904704467A
:1050C00000E00324F088204307D12846FFF794FA34
:1050D00003E031462846FFF75DFA204670BD704771
:1050E000004870472C16002070B50A78012302F0A2
:1050F0000F054E78AB401B4CD0F81C58012E17D032
:1051000045EA0343C0F81C3800EB4210D0F8002BEE
:1051100012040BD4D0F8002B0B890979C3F30A03CE
:105120001A4344EA81410A43C0F8002B002070BDB5
:105130009BB21D43C0F81C5800EB4210D0F8003958
:105140001B04F3D4D0F800390D890979C5F30A0599
:1051500089042B4341EA82510B432343C0F80039B1
:10516000E4E7000000800010D0F800196FF30A0196
:10517000C0F80019D0F8041841F48071C0F8041880
:105180000020704770B50D460446C2F3072104980D
:105190001E4601291BD0E06840F04000E060204638
:1051A00000F032F8C6F307210029A16B26D021F4C4
:1051B0008031A163C5F30741012907D1A16841F0FE
:1051C0000601A160A16841F02001A16070BDA16B42
:1051D00021F48031A163E1680A4A1140E160E1688D
:1051E00021F44011E160C0B2012803D1E06840F42D
:1051F0008010E060204600F007F8DBE741F48031E2
:10520000D7E70000BFFFBDFF08B500214FF0706277
:105210000091009B5B1C009393420CD80369002B08
:10522000F7DA0091016941F0010101610099491C1F
:105230000091914201D9032008BD0169C907F5D148
:10524000002008BD30B54C780A78012300EB4212EB
:10525000012C2CD0D2F8004B002C0BDAD2F8004BEA
:1052600044F00064C2F8004BD2F8004B44F0804494
:10527000C2F8004BD0F83C580C7804F00F0403FA45
:1052800004F425EA0444C0F83C48D0F81C480978E6
:1052900001F00F018B4024EA0341C0F81C18D2F83A
:1052A000000B19490840C2F8000B002030BDD2F8AD
:1052B0000049002C0BDAD2F8004944F00064C2F82F
:1052C0000049D2F8004944F08044C2F80049D0F8BF
:1052D0003C480D7805F00F0503FA05F5ADB2AC4377
:1052E000C0F83C48D0F81C48097801F00F018B4009
:1052F00099B28C43C0F81C48D2F800090349084011
:10530000C2F80009D1E700000078F3EF007833EC31
:10531000D0F8001E21F00301C0F8001ED0F80418D8
:1053200021F00201C0F8041800207047D0F8001ED8
:1053300021F00301C0F8001ED0F8041841F002016A
:10534000C0F80418002070472DE9F04F00250E46E4
:10535000044617462846294604EB8002C2F8041189
:10536000401C0F28F8D3C3F307405FEA000920462A
:1053700016D0806B20F40012A263A06B40F40022D0
:10538000A263084688462146C4F8000EC7F30720EA
:10539000012817D00846D1F8001841F0030118E0A1
:1053A000D0F8040840F00202C4F80428A06B40F4CE
:1053B0000012A263A06B20F40022A263A06B20F471
:1053C0008022DDE7300E0846D1F8001801D041F008
:1053D0000101C0F80018102100F08BFA00B101257E
:1053E000204600F06AFA00B101254046C4F8108852
:1053F000C4F81488C4F81C8800214FF0006B4FF0EB
:10540000904E4FF67F3AF2B215E000BF04EB411325
:10541000D3F800C9BCF1000F06DA11B1C3F800E9F6
:1054200004E0C4F800B901E0C3F80009C3F81009AA
:10543000C3F808A9491C8A42E8D8002115E000BF3A
:1054400004EB4113D3F800CBBCF1000F06DA11B125
:10545000C3F800EB04E0C4F800BB01E0C3F8000BA4
:10546000C3F8100BC3F808AB491C8A42E8D8D4F83B
:10547000101821F48072C4F81028A0616FF08040E9
:105480006061C6F3074018B9A06940F01000A06140
:10549000A0690A490843A061C7F3074018B1A06991
:1054A00040F00800A061B9F1010F03D1A0690449DF
:1054B0000843A0612846BDE8F08F000000383C801A
:1054C00004000040816821F00101816000207047E4
:1054D00010B5036C134CA34203D9D0F8003B002B4A
:1054E0001EDB0023C0F8103BD0F8103B43F4002330
:1054F000C0F8103BD0F8103B43F01803C0F8103B45
:10550000D0F8103B43F0C043C0F8103B012907D14D
:10551000C0F8142BD0F8001B41F08021C0F8001B0C
:10552000002010BD0A30544F4A780B78012A00EB56
:1055300043100BD0D0F8002B22F40012C0F8002B3F
:105540000979032914D0022912D017E0D0F80029D4
:1055500022F40012C0F800290979032901D0022998
:105560000CD1D0F8001941F08051C0F8001905E0C5
:10557000D0F8001B41F08051C0F8001B002070479C
:105580000A784B78D1B200EB4110012B12D0D0F841
:10559000001B002906DB2AB1D0F8001B21F0804156
:1055A000C0F8001BD0F8001B41F40011C0F8001B2C
:1055B00000207047D0F80019002906DB2AB1D0F886
:1055C000001921F08041C0F80019D0F8001941F409
:1055D0000011C0F80019EBE7F8B50C784F788B4D47
:1055E000E3B26FF0604600EB4313012F29D0D3F8EC
:1055F000107B6FF31207C3F8107BD3F8107B2F409A
:10560000C3F8107B002C7DD00D69002D7BD08C68F9
:1056100025446D1EB5FBF4F5ADB26C430C62D3F8B6
:10562000104B06EAC5452C43C3F8104BD3F8104B7A
:105630000D6AC5F312052C43C3F8104B012A70D034
:10564000CBE00F69EFB1D3F810796FF31207C3F80D
:105650001079D3F810792F40C3F810790CB30F6983
:105660008D682F447F1EB7FBF5F5D3F81079ADB2E6
:1056700006EAC5463743C3F810790E79012E1CD0CF
:105680002AE0D3F810692E40C3F81069D3F81059F6
:1056900045F40025C3F81059D3F810596FF31205DB
:1056A00020E00E698D68AE4200D90D61D0F8105926
:1056B00045F40026C0F810690EE0D3F8106926F012
:1056C000C046C3F81069D3F810694FF0C04707EA25
:1056D00045752E43C3F81069D3F810590E69C6F307
:1056E00012063543C3F81059012A1BD000EB4413AE
:1056F000D3F8004944F00444C3F800490C79012C64
:1057000031D001E044E057E00A695AB3D0F83428B8
:10571000097801F00F03012199400A43C0F83428A9
:1057200071E056E0CA691AB100EB4413C3F81429BA
:10573000097901290ED1D0F80818C90500EB4411E8
:10574000D1F8002902D442F0005201E042F0805228
:10575000C1F8002900EB4410D0F8001941F00441D1
:10576000C0F800194FE0D0F80848E405D3F8004924
:1057700002D444F0005401E044F08054C3F80049DE
:1057800000920A8A93B20A78C96800F00BFA3AE0EC
:105790000C690CB18C680C618C680C62D0F8105BE1
:1057A000C4F312042543C0F8105BD0F8104B44F446
:1057B0000024C0F8104B41E7D3F8104B8D68C5F3B7
:1057C00012052C43C3F8104BD3F8104B44F40024BB
:1057D00032E7CA680AB1C3F8142B097901290CD140
:1057E000D0F80808C005D3F8000B02D440F00050F0
:1057F00001E040F08050C3F8000BD3F8000B40F0FC
:105800000440C3F8000B0020F8BD0000FFFF07E0D4
:1058100038B50022009213464D780A7842F210748F
:1058200000EB4212012D19D0D2F8005B002D3CDABA
:10583000D2F8005B45F00065C2F8005B0A7800EB27
:105840004212D2F8005B45F08045C2F8005B009A36
:10585000521C0092A24221D9012326E0D2F800591D
:10586000002D22DAD2F8005945F00065C2F800593F
:105870000A7800EB4212D2F8005945F08045C2F890
:105880000059009A521C0092A242E5D80A7800EB17
:105890004212D2F80029002AF3DB06E00A7800EB76
:1058A0004212D2F8002B002AD1DB184638BD81689D
:1058B00041F0010181600020704708B500214FF0E0
:1058C00070620091009B5B1C009393420AD80369AD
:1058D000002BF7DA0091102101610099491C009119
:1058E000914201D9032008BD0169C906F5D4002001
:1058F00008BD18B500224FF070630092009C641C34
:1059000000949C420CD80469002CF7DA0092202203
:1059100042EA811101610099491C0091994201D923
:10592000032018BD01698906F5D4002018BDD0F800
:10593000080810F0060004D0022803D0062801D081
:105940000F20704702207047406900F00100704747
:1059500070B586B014216846FAF755FE1048002548
:10596000016841F00201016000680E4E00F0020083
:105970004FF4404405902A4621463046FDF77CF816
:105980000120CDE900400220CDE9020569463046FC
:10599000FCF77AFF0A20FCF7B5FE06B070BD0000E8
:1059A0003038024000040240D0F81818D0F81C0823
:1059B000084080B27047D0F81818D0F81C0808408A
:1059C000000C704710B5D0F81038D0F8342801F02A
:1059D0000F0400EB4110E24002F00102D0F8080988
:1059E00043EAC212104010BD00EB4111D1F8081B70
:1059F000D0F8140808407047416980690840704732
:105A000030B503460846940802F00301002203F56E
:105A1000805303E01D6840F8045B521CA242F9D396
:105A200000290BD01C680022D50024FA05F3491E7A
:105A3000521C090400F8013B090CF5D130BD70B5CA
:105A40000446C068002520F0C040E060012901D074
:105A500079B120E0E06840F00050E0600A20FCF7F7
:105A600051FE60690A3510F0010F10D1C82DF5D331
:105A70000DE0E06840F08040E0600A20FCF742FE64
:105A800060690A3510F0010F01D0C82DF5D3C82D7B
:105A900001D0002070BD012070BDD0F8002822F494
:105AA000FE62C0F80028D0F800284FF4FE6303EA35
:105AB00001110A43C0F8002800207047022A3ED195
:105AC000264A274B0A449A4201D20F2138E0254A40
:105AD000254B0A449A4201D20E2131E0234A244B3D
